:100000000C94B1000C94A7010C94CE000C94CE007B
:100010000C94CE000C94CE000C94CE000C94CE0028
:100020000C94CE000C94CE000C94CE000C94CE0018
:100030000C94CE000C94CE000C94CE000C94CE0008
:100040000C945D010C94CE000C94CE000C94CE0068
:100050000C94CE000C94CE000C94CE000C94CE00E8
:100060000C94CE000C94CE0000407A10F35A00A0FD
:10007000724E18090010A5D4E80000E87648170071
:1000800000E40B54020000CA9A3B000000E1F505B1
:10009000000080969800000040420F000000A086FB
:1000A00001000000102700000000E803000000002D
:1000B0006400000000000A000000000001000000D1
:1000C00000002C76D888DC674F0823DFC1DFAE59EB
:1000D000E1B1B796E5E3E453C63AE651997696E87E
:1000E000E6C28426EB898C9B62ED407C6FFCEFBC02
:1000F0009C9F40F2BAA56FA5F490055A2AF75C932D
:100100006B6CF9676DC11BFCE0E40D47FEF520E662
:10011000B500D0ED902E0300943577050080841E45
:10012000080000204E0A000000C80C333333330FA0
:10013000986E12831141EF8D2114893BE65516CF3D
:10014000FEE6DB18D1844B381BF77C1D901DA4BB49
:10015000E424203284725E228100C9F124ECA1E5FE
:100160003D2711241FBECFEFD8E0DEBFCDBF14E086
:10017000A0E0B1E0E0EFF7E102C005900D92A430FD
:10018000B107D9F724E0A4E0B4E001C01D92A53680
:10019000B207E1F70E94CB010C94F60B0C9400001F
:1001A000FC019191992339F08091C00085FFFCCF2B
:1001B0009093C600F6CF0895EF92FF920F931F938E
:1001C000CF93DF937C01C0E0862F8150990B8C0187
:1001D0008091C00087FFFCCF8091C6008D3071F404
:1001E000CE0DDF2DD11D188287E591E0DF91CF91F3
:1001F0001F910F91FF90EF900C94D0008A3081F303
:10020000883041F4CC2331F0C15085E091E00E9468
:10021000D000DECF2C2F30E020173107CCF62E0D8A
:100220003F1DF9018083CF5F9091C00095FFFCCF07
:100230008093C600CDCF98B1907F892B88B9299A39
:1002400085E08A95F1F7000029988FE193E0019706
:10025000F1F700C0000008950F931F93CF938C0116
:10026000F801C1918F01CC2389F0289A8C2F8295B7
:100270008F700E941B018C2F8F700E941B018FE3D7
:100280009FE10197F1F700C00000EACFCF911F91E5
:100290000F910895CF93C82F289882958F700E9450
:1002A0001B018C2F8F700E941B018FE39FE1019730
:1002B000F1F700C00000CF9108951F920F920FB682
:1002C0000F9211242F933F938F939F93AF93BF93DC
:1002D0008091610490916204A0916304B0916404E0
:1002E0003091600423E0230F2D3758F50196A11DAE
:1002F000B11D209360048093610490936204A093E5
:100300006304B093640480915C0490915D04A091B7
:100310005E04B0915F040196A11DB11D80935C0441
:1003200090935D04A0935E04B0935F04BF91AF917E
:100330009F918F913F912F910F900FBE0F901F9023
:10034000189526E8230F0296A11DB11DD2CF1F924A
:100350000F920FB60F9211242F938F939F9380913A
:100360000401823039F09091040181E0911180E024
:10037000809304012FEF80E792E02150804090406D
:10038000E1F700C000009F918F912F910F900FBE59
:100390000F901F901895CF93DF93CDB7DEB72A97B4
:1003A0000FB6F894DEBF0FBECDBF789484B58260DF
:1003B00084BD84B5816084BD85B5826085BD85B509
:1003C000816085BD80916E00816080936E00109287
:1003D0008100809181008260809381008091810002
:1003E0008160809381008091800081608093800093
:1003F0008091B10084608093B1008091B0008160F1
:100400008093B00080917A00846080937A0080911C
:100410007A00826080937A0080917A008160809374
:100420007A0080917A00806880937A001092C100EF
:1004300084B1836084B987B18F6087B98AB18B7CBE
:100440008AB98091C0008D7F8093C0001092C50052
:1004500087E68093C40088E18093C10086E08093A2
:10046000C2002FEF49EF80E0215040408040E1F78B
:1004700000C00000289883E00E941B01EFE1FEE429
:100480003197F1F700C0000083E00E941B018FE864
:1004900091E00197F1F700C0000083E00E941B018A
:1004A000EFE9FFE03197F1F700C0000082E00E9421
:1004B0001B018FE99FE00197F1F700C0000088E27F
:1004C0000E944A018CE00E944A0181E00E944A0198
:1004D000EFE3FFE13197F1F700C0000081E00E94F7
:1004E0004A0180E80E944A0189E091E00E942C01C3
:1004F00080EC0E944A0188E191E00E942C0186E292
:1005000091E00E94D0008AE591E00E94D0006AE06C
:10051000CE0101967C010E94DC00C7010E94B90453
:100520009C01255131092731314070F4BC01990FEC
:10053000880B990B0E9433086093000170930101AE
:10054000809302019093030181E00E944A0180E8B8
:100550000E944A0180E791E00E942C0180EC0E94F9
:100560004A0188E191E00E942C0180E891E00E941C
:10057000D00085EA91E00E94D00086EC91E00E94D4
:10058000D00084EE91E00E94D0008DE092E00E94C5
:10059000D00080E392E00E94D00065E0C7010E9495
:1005A000DC00C7010E94B9048130910509F033C114
:1005B00080E090E8A4E5B4E480935404909355045B
:1005C000A0935604B0935704809157048F93809161
:1005D00056048F93809155048F93809154048F9388
:1005E000809103018F93809102018F93809101018B
:1005F0008F93809100018F9389E792E09F938F936F
:1006000084E094E09F938F930E94550984E094E0E6
:100610000E94D00014BC87E085BD16BC10928000FB
:10062000809381001092850010928400809169006F
:10063000826080936900809169008E7F8093690059
:10064000E89A789481E00E944A0180E80E944A0179
:100650008CEA92E00E942C0180EC0E944A0183EB1C
:1006600092E00E942C010FB6F894DEBF0FBECDBF02
:1006700084E4882E84E0982E90ED292E92E0392E85
:1006800024E0422E24E0522E30E0632E30E0732E20
:1006900080910401813009F0F3C0C6B4A0908400B9
:1006A000B090850016BC10928500109284009CE3E7
:1006B000C99E60011124A99E50011124A114B10406
:1006C00071F120E030E040E051E460910001709170
:1006D000010180910201909103010E94E80820E04D
:1006E00030E040E650E40E94E80820E030E84BE3C8
:1006F00056E40E94BF079B01AC01609158047091C1
:10070000590480915A0490915B040E944E076093B3
:1007100058047093590480935A0490935B04209179
:1007200054043091550440915604509157046091FF
:1007300058047091590480915A0490915B040E946E
:10074000E30887FD03C0E2E0E0930401DF92CF926B
:100750008CEB92E09F938F939F928F920E9455090A
:1007600087E80E944A0184E494E00E942C01609191
:1007700058047091590480915A0490915B04870148
:1007800021E044E00E949B04FF92EF9286EC92E00D
:100790009F938F939F928F920E94550988EC0E949D
:1007A0004A0184E494E00E942C01809157048F93C5
:1007B000809156048F93809155048F9380915404B7
:1007C0008F93FF92EF92BF92AF92DF92CF923F92C0
:1007D0002F925F924F920E94550984E094E00E940C
:1007E000D0000FB6F894DEBF0FBECDBF84E690E018
:1007F00020910401213041F4EFE3FCE93197F1F756
:1008000000C000000197A1F76114710409F440CF02
:100810000E9400003DCF8230910529F480E090E0F5
:10082000A4E3B4E4C9CE039729F480E090E0AAE7FA
:10083000B4E4C2CE86E492E00E94D0006AE0C70130
:100840000E94DC00C7010E94B904BC01990F880B0B
:10085000990B0E943308609354047093550480935D
:1008600056049093570420E030E0A9010E94BA0793
:1008700018160CF4A9CE80E090E0AAEFB3E49CCE69
:1008800080910401811126C087E80E944A018BE013
:1008900093E00E942C0188EC0E944A0184E193E0DD
:1008A0000E942C018DE193E00E94D00016BC1092B2
:1008B00085001092840082E390E0209104012111D0
:1008C000A3CFEFE3FCE93197F1F700C000000197F7
:1008D000A1F79ACF80910401823009F095CF81E091
:1008E0000E944A0180E80E944A0183E493E00E944A
:1008F0002C0180EC0E944A0184E593E00E942C01C7
:1009000085E693E00E94D0008AE993E00E94D0003F
:100910008FEC93E00E94D00016BC109285001092DC
:100920008400FFEF23ED40E3F15020404040E1F729
:1009300000C00000F6CFEF920F931F93CF93DF9389
:10094000E80134E047FD34E1042E000C550B57FF5D
:1009500003C0519541955109E32E022F242FAE017A
:100960000E94DF04CE01DF91CF911F910F91EF9094
:100970000895FC0188279927E89421912032E9F312
:10098000293010F02E30C8F32B3241F02D3239F4DB
:10099000689404C00E94D704820F911D21912053B6
:1009A0002A30C0F31EF4909581959F4F08957AE008
:1009B000979F902D879F802D910D11240895A9E078
:1009C000B0E0E5EEF4E00C941C076A01F22EB02EC4
:1009D000102FFBE3AF2EA01608F41BE31F5F012FBF
:1009E00027E0AE014F5F5F4F0E943E06BC01898148
:1009F000982F9970913009F43FC09BE2E1FC04C04C
:100A00009E2D9170E0FC3AC05E2D5071E82FE87089
:100A100083FF46C084E0911101C083E0EF2DE81B05
:100A20008F1508F0E0E0D6018E2F20E2552351F11A
:100A3000992329F0D6019C93C60101966C01960179
:100A40002D5F3F4FE2FE24C08EE4D6018C9391E4EB
:100A500011969C93119712968C93D9018E2F90E248
:100A600081111BC0E20FF32FF11D10828EEF9FEF5B
:100A70002996ECE00C9438079DE2C6CF90E2C4CFF3
:100A80002D9381508111FCCFCE0ED11CE0E0D0CF50
:100A90008EE6D6018C9391E6DBCF9D938150E0CF1B
:100AA000482F447082FF3DC084E0911101C083E073
:100AB0008F1510F4EF2DE81BD6018E2F20E2552361
:100AC00009F1992329F0D6019C93C60101966C0186
:100AD00096012D5F3F4FE2FE1BC089E4D6018C9347
:100AE0008EE411968C93119786E412968C93D9011B
:100AF0008E2F90E2882309F4B5CF9D938150FACFD1
:100B00002D9381508111FCCFCE0ED11CE0E0D9CFC6
:100B100089E6D6018C938EE611968C93119786E622
:100B2000E4CF9B0177FF02C030E020E0A1E0B0E01D
:100B3000911102C0B0E0A0E0F9013196AE0FBF1FE5
:100B40008B2C912CBB2009F461C05401EFEFAE1A3D
:100B5000BE0AAA0DBB1DFA161B0619F014F04F2D84
:100B60004A1B511188C0E3FC59C07601A42FB0E2A2
:100B7000A1114FC0C40ED11C992309F45BC040E001
:100B8000D6011196F60190836D01552309F448C0F2
:100B9000012F060F9A81582F507184FF03C09133A3
:100BA00009F4015010160CF047C0093008F008E0B5
:100BB000EEE2FE2E5B01A01AB108850191948194AA
:100BC00091082F3F320729F4D601FC92F6013196A5
:100BD0006F016217730794F1021713077CF5DB01AD
:100BE000A21BB30BAA24A394B12CAC0EBD1EAA0D5C
:100BF000BB1D11968C9121503109D60111962815F3
:100C00003905F4F0F60180836D01DBCFB12CA12C06
:100C1000A0CFF701B1937F01A150AACF9111B0CF1E
:100C2000D601942F50E302C05D9391509111FCCFF7
:100C3000C40ED11C40E0ACCF01E0BACF80E3DBCFE3
:100C40006217730731F4963388F4953311F4552302
:100C500069F0F6018083FD01842F90E2811108C0C4
:100C6000A40FB11D1C9290E080E002CF81E3F1CF90
:100C700091938150F3CF911183CF8ACF283008F020
:100C800027E03327DA01990F311D87FD9160009627
:100C90006105710539F432602E5F3D9330E32A958A
:100CA000E1F708959F3F30F080387105610509F044
:100CB0003C5F3C5F3D93913008F08068911DDF936D
:100CC000CF931F930F93FF92EF92192F987F9695D2
:100CD000E92F96959695E90FFF27EE53FF4F992739
:100CE0003327EE24FF24A701E70105900894079419
:100CF00028F4360FE71EF81E491F511D660F771F97
:100D0000881F991F0694A1F70590079428F4E70E11
:100D1000F81E491F561FC11D770F881F991F661F98
:100D20000694A1F70590079428F4F80E491F561F62
:100D3000C71FD11D880F991F661F771F0694A1F743
:100D40000590079420F4490F561FC71FD81F990F0D
:100D5000661F771F881F0694A9F784911095177056
:100D600041F0D695C79557954795F794E7941A950E
:100D7000C1F7E8E6F0E0689415901591359165911A
:100D8000959105907FE27395E118F10A430B560B9C
:100D9000C90BD009C0F7E10CF11E431F561FC91F34
:100DA000D01D7EF4703311F48A95E6CFE89401509B
:100DB00030F0080F0AF40027021708F4202F2395BB
:100DC000022F7A3328F079E37D932A95E9F710C052
:100DD0007D932A9589F6069497956795379517958B
:100DE0001794E118F10A430B560BC90BD00998F080
:100DF00023957E9173957A3308F070E37C932013EA
:100E0000B8F77E9170617D9330F0839571E37D93A7
:100E100070E32A95E1F71124EF90FF900F911F9155
:100E2000CF91DF91992787FD909508952F923F925A
:100E30004F925F926F927F928F929F92AF92BF92EA
:100E4000CF92DF92EF92FF920F931F93CF93DF9396
:100E5000CDB7DEB7CA1BDB0B0FB6F894DEBF0FBEF3
:100E6000CDBF09942A88398848885F846E847D8440
:100E70008C849B84AA84B984C884DF80EE80FD8042
:100E80000C811B81AA81B981CE0FD11D0FB6F894B8
:100E9000DEBF0FBECDBFED0108955058BB27AA2776
:100EA0000E9465070C94A9080E949B0838F00E94D4
:100EB000A20820F039F49F3F19F426F40C94980806
:100EC0000EF4E095E7FB0C949208E92F0E94BA0813
:100ED00058F3BA17620773078407950720F079F46F
:100EE000A6F50C94DC080EF4E0950B2EBA2FA02D7D
:100EF0000B01B90190010C01CA01A0011124FF27C7
:100F0000591B99F0593F50F4503E68F11A16F040C1
:100F1000A22F232F342F4427585FF3CF46953795C0
:100F20002795A795F0405395C9F77EF41F16BA0B85
:100F3000620B730B840BBAF09150A1F0FF0FBB1F33
:100F4000661F771F881FC2F70EC0BA0F621F731F7C
:100F5000841F48F4879577956795B795F7959E3FD9
:100F600008F0B0CF9395880F08F09927EE0F97956A
:100F7000879508950E946E0808F481E008950E9404
:100F8000D3070C94A9080E94A20858F00E949B085D
:100F900040F029F45F3F29F00C94920851110C9411
:100FA000DD080C9498080E94BA0868F39923B1F3FD
:100FB000552391F3951B550BBB27AA27621773077F
:100FC000840738F09F5F5F4F220F331F441FAA1F13
:100FD000A9F335D00E2E3AF0E0E832D091505040CF
:100FE000E695001CCAF72BD0FE2F29D0660F771F7D
:100FF000881FBB1F261737074807AB07B0E809F063
:10100000BB0B802DBF01FF2793585F4F3AF09E3FE7
:10101000510578F00C9492080C94DD085F3FE4F3DE
:10102000983ED4F3869577956795B795F7959F5F2A
:10103000C9F7880F911D9695879597F90895E1E076
:10104000660F771F881FBB1F621773078407BA07D5
:1010500020F0621B730B840BBA0BEE1F88F7E09530
:101060000895E89409C097FB3EF49095809570959B
:1010700061957F4F8F4F9F4F9923A9F0F92F96E9E4
:10108000BB279395F695879577956795B795F11159
:10109000F8CFFAF4BB0F11F460FF1BC06F5F7F4FF6
:1010A0008F4F9F4F16C0882311F096E911C0772308
:1010B00021F09EE8872F762F05C0662371F096E811
:1010C000862F70E060E02AF09A95660F771F881FE0
:1010D000DAF7880F9695879597F90895990F000884
:1010E000550FAA0BE0E8FEEF16161706E807F907FA
:1010F000C0F012161306E407F50798F0621B730B95
:10110000840B950B39F40A2661F0232B242B252B15
:1011100021F408950A2609F4A140A6958FEF811DB8
:10112000811D089597F99F6780E870E060E0089559
:101130009FEF80EC089500240A94161617061806EF
:101140000906089500240A941216130614060506CB
:101150000895092E0394000C11F4882352F0BB0F5C
:1011600040F4BF2B11F460FF04C06F5F7F4F8F4FBF
:101170009F4F089557FD9058440F551F59F05F3FFA
:1011800071F04795880F97FB991F61F09F3F79F0A9
:1011900087950895121613061406551FF2CF46952B
:1011A000F1DF08C0161617061806991FF1CF8695AD
:1011B0007105610508940895E894BB276627772791
:1011C000CB0197F908950E946E0808F48FEF0895F7
:1011D0000E94FB080C94A9080E949B0838F00E940A
:1011E000A20820F0952311F00C9492080C94980812
:1011F00011240C94DD080E94BA0870F3959FC1F386
:10120000950F50E0551F629FF001729FBB27F00DB4
:10121000B11D639FAA27F00DB11DAA1F649F662709
:10122000B00DA11D661F829F2227B00DA11D621F58
:10123000739FB00DA11D621F839FA00D611D221F12
:10124000749F3327A00D611D231F849F600D211DF6
:10125000822F762F6A2F11249F5750409AF0F1F079
:1012600088234AF0EE0FFF1FBB1F661F771F881FE2
:1012700091505040A9F79E3F510580F00C94920880
:101280000C94DD085F3FE4F3983ED4F386957795A0
:101290006795B795F795E7959F5FC1F7FE2B880F88
:1012A000911D9695879597F90895AEE0B0E0EBE52E
:1012B000F9E00C9424070D891E8986E08C831A833B
:1012C00009838FEF9FE79E838D83AE01475E5F4F5B
:1012D0006F89788DCE0101960E9478092F8138851B
:1012E000020F131FF80110822E96E4E00C944007C1
:1012F000ABE0B0E0EEE7F9E00C9416077C013B01AF
:101300008A01FC0117821682838181FFC8C1CE0148
:1013100001965C01F7019381F30193FD859193FFA1
:1013200081913F01882309F453C1853239F493FD3B
:10133000859193FF81913F01853229F4B70190E0B7
:101340000E94680BE7CF912C212C312CFFE1F31583
:1013500038F08B3211F190F4803209F1833229F1A7
:1013600037FC3CC020ED280F2A3050F536FE20C057
:101370008AE0989E200D1124922E06C08D3291F0A5
:10138000803371F7689430F8F30193FD859193FFF2
:1013900081913F018111DACF21C0689431F86894BE
:1013A00032F8F2CF689433F8EFCF689434F8ECCF8A
:1013B000EAE02E9E200D1124222E689435F8E4CF09
:1013C0008E3229F436FC04C1689436F8DDCF8C36B1
:1013D00019F4689437F8D8CF8836B1F2982F9F7DEA
:1013E00095549330E0F08336A1F18337C1F1833512
:1013F00009F063C02801F2E04F0E511CF801C080D3
:10140000D180692D70E036FC02C06FEF7FEFC6011E
:101410000E94520B4C01689437F882010AC00C5F9D
:101420001F4FFFE3F98388248394912C6501E8948E
:1014300037F833FE2DC0522C8114910471F55520DC
:1014400009F468CFB70180E290E00E94680B5A94DB
:10145000F6CFF801808189830E5F1F4FE4CF28010A
:10146000F2E04F0E511CF801C080D180692D70E070
:1014700036FC02C06FEF7FEFC6010E945D0B4C018E
:101480008201D5CFB70180E290E00E94680B2A94D8
:101490002814190409F0B0F7CECFF60137FC859176
:1014A00037FE81916F01B70190E00E94680B5110E7
:1014B0005A94F1E08F1A9108BFCF843619F089361B
:1014C00009F077C0F80137FE6BC0608171818281BD
:1014D00093810C5F1F4FF32DFF763F2E97FF09C0BE
:1014E00090958095709561957F4F8F4F9F4F689431
:1014F00037F82AE030E0A5010E94980BC82ECA18E0
:101500008C2C432C36FE0CC0E89440F8C91440F4EF
:1015100034FE05C032FC03C0F32DFE7E4F2E892C15
:1015200044FE95C0FE01EC0DF11D8081803309F071
:1015300087C0242D297E422E842D8870582E43FC8E
:1015400095C040FE8FC09C2C821418F42C0C922C59
:10155000981844FE91C0B70180E390E00E94680BA8
:1015600042FE09C088E790E041FE02C088E590E0B5
:10157000B7010E94680BC91408F48AC0CA94D12C20
:101580009FEFC91AD90ACA0CDB1CF60182916F01C0
:10159000B70190E00E94680BAC14BD04B1F74FCFC7
:1015A00060817181072E000C880B990B0E5F1F4F15
:1015B00092CFD32CE894D4F82AE030E0853739F183
:1015C000232D297FD22E8F3601F148F48835A9F0DA
:1015D000F701868197812B96E2E10C9432078037E0
:1015E00049F08837A9F7D4FE02C06894D2F820E108
:1015F00030E00DC06894D4F8F6CF34FE03C0822FDB
:101600008660D82E20E132E002C028E030E0F80108
:10161000D7FE0FC060817181828193810C5F1F4F63
:10162000A5010E94980BC82ECA183D2CE89437F8E3
:1016300067CF6081718190E080E00E5F1F4FF0CF37
:1016400042FC02C0839478CF8394839475CF842D19
:10165000867809F471CFF6CFB70180E290E00E945E
:10166000680B83948214C0F3512C73CF522C5818FA
:10167000821408F46ECFF8CF842D867809F47BCFDE
:101680008BE241FE80E247FC8DE2B70190E071CF32
:10169000B70180E390E00E94680B9A946CCF8FEFC3
:1016A0009FEF99CFFC010590615070400110D8F771
:1016B000809590958E0F9F1F0895FC01615070409A
:1016C00001900110D8F7809590958E0F9F1F089577
:1016D0000F931F93CF93DF93182F092FEB018B816B
:1016E00081FD09C01FEF0FEF812F902FDF91CF9168
:1016F0001F910F91089582FF14C02E813F818C812C
:101700009D81281739073CF4E881F981CF010196C2
:101710009983888310838E819F8101969F838E8316
:10172000E3CFE885F985812F0995892BA1F3DACFDD
:10173000FA01AA27283051F1203181F1E8946F9302
:101740006E7F6E5F7F4F8F4F9F4FAF4FB1E03ED0A8
:10175000B4E03CD0670F781F891F9A1FA11D680F46
:10176000791F8A1F911DA11D6A0F711D811D911D79
:10177000A11D20D009F468943F912AE0269F1124EE
:101780003019305D3193DEF6CF010895462F477052
:10179000405D4193B3E00FD0C9F7F6CF462F4F70AD
:1017A000405D4A3318F0495D31FD4052419302D00B
:1017B000A9F7EACFB4E0A6959795879577956795B1
:1017C000BA95C9F700976105710508959B01AC01B1
:1017D0000A2E06945795479537952795BA95C9F7D8
:1017E000620F731F841F951FA01D0895F894FFCFEB
:1017F00000008C420108200800312E204B494C4F3C
:10180000204749524953490042454B4C454E49599E
:101810004F522E2E2E000D0A2D2D2D20414B494CBE
:101820004C4920424953494B4C4554205349535449
:10183000454D494E4520484F532047454C44494E5D
:10184000495A202D2D2D200D0A004B696C6F6E75A5
:101850007A7520676972696E20286B67293A2000C3
:10186000322E20484544454620534543494D4900C2
:101870000D0A59616B6D616B2069737465646967EA
:10188000696E697A206D656E757975207365636917
:101890006E3A0D0A00312D204B617374616D6F6ECD
:1018A00075205469726974692028383530206B635B
:1018B000616C290D0A00322D20456C6269737461D8
:1018C0006E20546176612028373230206B63616C62
:1018D000290D0A00332D204661737420466F6F6412
:1018E00020427572676572204D656E75737520288C
:1018F00031303030206B63616C290D0A00342D20AB
:101900004F7A656C204B616C6F7269204D696B7406
:101910006172692047697265636567696D0D0A00C8
:10192000536563696D696E697A2028312F322F33D0
:101930002F34293A200059616B6D616B20697374F3
:1019400065646967696E697A206B616C6F72692082
:101950006D696B746172696E6920676972696E2066
:10196000286B63616C293A20000D0A2D3E205349F3
:101970005354454D204B5552554C44553A20252E35
:101980003166206B67207C2048656465663A2025B7
:101990002E3166206B63616C0D0A0A004E4142498C
:1019A0005A3A0059414B494C414E3A002533642084
:1019B00042504D2020002573206B63616C20200075
:1019C000414B544946202D3E204E6162697A3A20AF
:1019D0002564207C20506564616C3A202564207C5D
:1019E0002059616B696C616E3A202573202F202588
:1019F0002E3166206B63616C0D0A004D4F4C412EF9
:101A00002E2E200042454B4C49594F52004455520E
:101A1000414B4C4154494C4449202D204B616C6F43
:101A2000726920736179696D692064757264752EBD
:101A30000D0A0020484544454620554C4153544921
:101A40002120200020414E5452454E4D414E20420F
:101A500049545449000D0A2A2A2A2A2A2A2A2A2ABB
:101A60002A2A2A2A2A2A2A2A2A2A2A2A2A2A2A2AD6
:101A70002A2A2A2A2A2A2A2A2A2A2A2A2A2A2A2AC6
:101A80002A2A2A2A2A2A2A0D0A002A2A2A205445E2
:101A90004252494B4C455221204845444546204B33
:101AA000414C4F524959492042415249594C4120D9
:101AB00059414B54494E495A202A2A2A0D0A002AD4
:101AC0002A2A2A2A2A2A2A2A2A2A2A2A2A2A2A2A76
:101AD0002A2A2A2A2A2A2A2A2A2A2A2A2A2A2A2A66
:101AE0002A2A2A2A2A2A2A2A2A2A2A2A2A2A2A0D73
:041AF0000A0A0000DE
:00000001FF
